{
  "address": "0x1B563583992B1f28117bEce62d126F60682dCB6e",
  "abi": [
    {
      "inputs": [
        {
          "internalType": "address",
          "name": "_owner",
          "type": "address"
        },
        {
          "internalType": "uint256",
          "name": "_requiredPasses",
          "type": "uint256"
        },
        {
          "internalType": "address",
          "name": "_token",
          "type": "address"
        },
        {
          "internalType": "uint256",
          "name": "_claimThreshold",
          "type": "uint256"
        }
      ],
      "stateMutability": "nonpayable",
      "type": "constructor"
    },
    {
      "inputs": [
        {
          "internalType": "address",
          "name": "sender",
          "type": "address"
        },
        {
          "internalType": "uint256",
          "name": "balance",
          "type": "uint256"
        },
        {
          "internalType": "uint256",
          "name": "needed",
          "type": "uint256"
        },
        {
          "internalType": "uint256",
          "name": "tokenId",
          "type": "uint256"
        }
      ],
      "name": "ERC1155InsufficientBalance",
      "type": "error"
    },
    {
      "inputs": [
        {
          "internalType": "address",
          "name": "approver",
          "type": "address"
        }
      ],
      "name": "ERC1155InvalidApprover",
      "type": "error"
    },
    {
      "inputs": [
        {
          "internalType": "uint256",
          "name": "idsLength",
          "type": "uint256"
        },
        {
          "internalType": "uint256",
          "name": "valuesLength",
          "type": "uint256"
        }
      ],
      "name": "ERC1155InvalidArrayLength",
      "type": "error"
    },
    {
      "inputs": [
        {
          "internalType": "address",
          "name": "operator",
          "type": "address"
        }
      ],
      "name": "ERC1155InvalidOperator",
      "type": "error"
    },
    {
      "inputs": [
        {
          "internalType": "address",
          "name": "receiver",
          "type": "address"
        }
      ],
      "name": "ERC1155InvalidReceiver",
      "type": "error"
    },
    {
      "inputs": [
        {
          "internalType": "address",
          "name": "sender",
          "type": "address"
        }
      ],
      "name": "ERC1155InvalidSender",
      "type": "error"
    },
    {
      "inputs": [
        {
          "internalType": "address",
          "name": "operator",
          "type": "address"
        },
        {
          "internalType": "address",
          "name": "owner",
          "type": "address"
        }
      ],
      "name": "ERC1155MissingApprovalForAll",
      "type": "error"
    },
    {
      "inputs": [
        {
          "internalType": "address",
          "name": "owner",
          "type": "address"
        }
      ],
      "name": "OwnableInvalidOwner",
      "type": "error"
    },
    {
      "inputs": [
        {
          "internalType": "address",
          "name": "account",
          "type": "address"
        }
      ],
      "name": "OwnableUnauthorizedAccount",
      "type": "error"
    },
    {
      "anonymous": false,
      "inputs": [
        {
          "indexed": true,
          "internalType": "address",
          "name": "account",
          "type": "address"
        },
        {
          "indexed": true,
          "internalType": "address",
          "name": "operator",
          "type": "address"
        },
        {
          "indexed": false,
          "internalType": "bool",
          "name": "approved",
          "type": "bool"
        }
      ],
      "name": "ApprovalForAll",
      "type": "event"
    },
    {
      "anonymous": false,
      "inputs": [
        {
          "indexed": true,
          "internalType": "uint256",
          "name": "claimId",
          "type": "uint256"
        }
      ],
      "name": "ClaimApproved",
      "type": "event"
    },
    {
      "anonymous": false,
      "inputs": [
        {
          "indexed": true,
          "internalType": "uint256",
          "name": "claimId",
          "type": "uint256"
        },
        {
          "indexed": true,
          "internalType": "address",
          "name": "creator",
          "type": "address"
        },
        {
          "indexed": false,
          "internalType": "string",
          "name": "impactScope",
          "type": "string"
        }
      ],
      "name": "ClaimCreated",
      "type": "event"
    },
    {
      "anonymous": false,
      "inputs": [
        {
          "indexed": true,
          "internalType": "uint256",
          "name": "claimId",
          "type": "uint256"
        }
      ],
      "name": "ClaimFunded",
      "type": "event"
    },
    {
      "anonymous": false,
      "inputs": [
        {
          "indexed": false,
          "internalType": "uint256",
          "name": "newThreshold",
          "type": "uint256"
        }
      ],
      "name": "ClaimThresholdUpdated",
      "type": "event"
    },
    {
      "anonymous": false,
      "inputs": [
        {
          "indexed": true,
          "internalType": "uint256",
          "name": "claimId",
          "type": "uint256"
        },
        {
          "indexed": true,
          "internalType": "address",
          "name": "reviewer",
          "type": "address"
        },
        {
          "indexed": false,
          "internalType": "bool",
          "name": "pass",
          "type": "bool"
        }
      ],
      "name": "Evaluated",
      "type": "event"
    },
    {
      "anonymous": false,
      "inputs": [
        {
          "indexed": true,
          "internalType": "address",
          "name": "previousOwner",
          "type": "address"
        },
        {
          "indexed": true,
          "internalType": "address",
          "name": "newOwner",
          "type": "address"
        }
      ],
      "name": "OwnershipTransferred",
      "type": "event"
    },
    {
      "anonymous": false,
      "inputs": [
        {
          "indexed": true,
          "internalType": "address",
          "name": "reviewer",
          "type": "address"
        }
      ],
      "name": "ReviewerAdded",
      "type": "event"
    },
    {
      "anonymous": false,
      "inputs": [
        {
          "indexed": true,
          "internalType": "address",
          "name": "reviewer",
          "type": "address"
        }
      ],
      "name": "ReviewerRemoved",
      "type": "event"
    },
    {
      "anonymous": false,
      "inputs": [
        {
          "indexed": true,
          "internalType": "address",
          "name": "operator",
          "type": "address"
        },
        {
          "indexed": true,
          "internalType": "address",
          "name": "from",
          "type": "address"
        },
        {
          "indexed": true,
          "internalType": "address",
          "name": "to",
          "type": "address"
        },
        {
          "indexed": false,
          "internalType": "uint256[]",
          "name": "ids",
          "type": "uint256[]"
        },
        {
          "indexed": false,
          "internalType": "uint256[]",
          "name": "values",
          "type": "uint256[]"
        }
      ],
      "name": "TransferBatch",
      "type": "event"
    },
    {
      "anonymous": false,
      "inputs": [
        {
          "indexed": true,
          "internalType": "address",
          "name": "operator",
          "type": "address"
        },
        {
          "indexed": true,
          "internalType": "address",
          "name": "from",
          "type": "address"
        },
        {
          "indexed": true,
          "internalType": "address",
          "name": "to",
          "type": "address"
        },
        {
          "indexed": false,
          "internalType": "uint256",
          "name": "id",
          "type": "uint256"
        },
        {
          "indexed": false,
          "internalType": "uint256",
          "name": "value",
          "type": "uint256"
        }
      ],
      "name": "TransferSingle",
      "type": "event"
    },
    {
      "anonymous": false,
      "inputs": [
        {
          "indexed": false,
          "internalType": "string",
          "name": "value",
          "type": "string"
        },
        {
          "indexed": true,
          "internalType": "uint256",
          "name": "id",
          "type": "uint256"
        }
      ],
      "name": "URI",
      "type": "event"
    },
    {
      "inputs": [
        {
          "internalType": "address",
          "name": "_reviewer",
          "type": "address"
        }
      ],
      "name": "addReviewer",
      "outputs": [],
      "stateMutability": "nonpayable",
      "type": "function"
    },
    {
      "inputs": [
        {
          "internalType": "address",
          "name": "account",
          "type": "address"
        },
        {
          "internalType": "uint256",
          "name": "id",
          "type": "uint256"
        }
      ],
      "name": "balanceOf",
      "outputs": [
        {
          "internalType": "uint256",
          "name": "",
          "type": "uint256"
        }
      ],
      "stateMutability": "view",
      "type": "function"
    },
    {
      "inputs": [
        {
          "internalType": "address[]",
          "name": "accounts",
          "type": "address[]"
        },
        {
          "internalType": "uint256[]",
          "name": "ids",
          "type": "uint256[]"
        }
      ],
      "name": "balanceOfBatch",
      "outputs": [
        {
          "internalType": "uint256[]",
          "name": "",
          "type": "uint256[]"
        }
      ],
      "stateMutability": "view",
      "type": "function"
    },
    {
      "inputs": [],
      "name": "claimThreshold",
      "outputs": [
        {
          "internalType": "uint256",
          "name": "",
          "type": "uint256"
        }
      ],
      "stateMutability": "view",
      "type": "function"
    },
    {
      "inputs": [
        {
          "internalType": "uint256",
          "name": "",
          "type": "uint256"
        }
      ],
      "name": "claims",
      "outputs": [
        {
          "internalType": "address",
          "name": "creator",
          "type": "address"
        },
        {
          "internalType": "address",
          "name": "recipient",
          "type": "address"
        },
        {
          "internalType": "string",
          "name": "tokenURI",
          "type": "string"
        },
        {
          "internalType": "string",
          "name": "impactScope",
          "type": "string"
        },
        {
          "internalType": "uint64",
          "name": "impactStart",
          "type": "uint64"
        },
        {
          "internalType": "uint64",
          "name": "impactEnd",
          "type": "uint64"
        },
        {
          "internalType": "enum ImpactClaim.ClaimStatus",
          "name": "status",
          "type": "uint8"
        },
        {
          "internalType": "uint256",
          "name": "passCount",
          "type": "uint256"
        },
        {
          "internalType": "uint256",
          "name": "totalEvals",
          "type": "uint256"
        }
      ],
      "stateMutability": "view",
      "type": "function"
    },
    {
      "inputs": [
        {
          "internalType": "address",
          "name": "_recipient",
          "type": "address"
        },
        {
          "internalType": "string",
          "name": "_tokenURI",
          "type": "string"
        },
        {
          "internalType": "string",
          "name": "_impactScope",
          "type": "string"
        },
        {
          "internalType": "uint64",
          "name": "_impactStart",
          "type": "uint64"
        },
        {
          "internalType": "uint64",
          "name": "_impactEnd",
          "type": "uint64"
        }
      ],
      "name": "createClaim",
      "outputs": [
        {
          "internalType": "uint256",
          "name": "claimId",
          "type": "uint256"
        }
      ],
      "stateMutability": "nonpayable",
      "type": "function"
    },
    {
      "inputs": [],
      "name": "dao",
      "outputs": [
        {
          "internalType": "address",
          "name": "",
          "type": "address"
        }
      ],
      "stateMutability": "view",
      "type": "function"
    },
    {
      "inputs": [
        {
          "internalType": "uint256",
          "name": "_claimId",
          "type": "uint256"
        },
        {
          "internalType": "bool",
          "name": "_pass",
          "type": "bool"
        },
        {
          "internalType": "string",
          "name": "_evidenceURI",
          "type": "string"
        }
      ],
      "name": "evaluate",
      "outputs": [],
      "stateMutability": "nonpayable",
      "type": "function"
    },
    {
      "inputs": [
        {
          "internalType": "uint256",
          "name": "",
          "type": "uint256"
        },
        {
          "internalType": "uint256",
          "name": "",
          "type": "uint256"
        }
      ],
      "name": "evaluations",
      "outputs": [
        {
          "internalType": "address",
          "name": "reviewer",
          "type": "address"
        },
        {
          "internalType": "bool",
          "name": "pass",
          "type": "bool"
        },
        {
          "internalType": "string",
          "name": "evidenceURI",
          "type": "string"
        },
        {
          "internalType": "uint256",
          "name": "timestamp",
          "type": "uint256"
        }
      ],
      "stateMutability": "view",
      "type": "function"
    },
    {
      "inputs": [
        {
          "internalType": "uint256",
          "name": "_claimId",
          "type": "uint256"
        }
      ],
      "name": "getClaimStatus",
      "outputs": [
        {
          "internalType": "enum ImpactClaim.ClaimStatus",
          "name": "",
          "type": "uint8"
        }
      ],
      "stateMutability": "view",
      "type": "function"
    },
    {
      "inputs": [
        {
          "internalType": "uint256",
          "name": "_claimId",
          "type": "uint256"
        },
        {
          "internalType": "uint256",
          "name": "_index",
          "type": "uint256"
        }
      ],
      "name": "getEvaluation",
      "outputs": [
        {
          "components": [
            {
              "internalType": "address",
              "name": "reviewer",
              "type": "address"
            },
            {
              "internalType": "bool",
              "name": "pass",
              "type": "bool"
            },
            {
              "internalType": "string",
              "name": "evidenceURI",
              "type": "string"
            },
            {
              "internalType": "uint256",
              "name": "timestamp",
              "type": "uint256"
            }
          ],
          "internalType": "struct ImpactClaim.Evaluation",
          "name": "",
          "type": "tuple"
        }
      ],
      "stateMutability": "view",
      "type": "function"
    },
    {
      "inputs": [
        {
          "internalType": "uint256",
          "name": "_claimId",
          "type": "uint256"
        }
      ],
      "name": "getEvaluationCount",
      "outputs": [
        {
          "internalType": "uint256",
          "name": "",
          "type": "uint256"
        }
      ],
      "stateMutability": "view",
      "type": "function"
    },
    {
      "inputs": [
        {
          "internalType": "address",
          "name": "",
          "type": "address"
        },
        {
          "internalType": "uint256",
          "name": "",
          "type": "uint256"
        }
      ],
      "name": "hasEvaluated",
      "outputs": [
        {
          "internalType": "bool",
          "name": "",
          "type": "bool"
        }
      ],
      "stateMutability": "view",
      "type": "function"
    },
    {
      "inputs": [
        {
          "internalType": "address",
          "name": "account",
          "type": "address"
        },
        {
          "internalType": "address",
          "name": "operator",
          "type": "address"
        }
      ],
      "name": "isApprovedForAll",
      "outputs": [
        {
          "internalType": "bool",
          "name": "",
          "type": "bool"
        }
      ],
      "stateMutability": "view",
      "type": "function"
    },
    {
      "inputs": [
        {
          "internalType": "address",
          "name": "",
          "type": "address"
        }
      ],
      "name": "isReviewer",
      "outputs": [
        {
          "internalType": "bool",
          "name": "",
          "type": "bool"
        }
      ],
      "stateMutability": "view",
      "type": "function"
    },
    {
      "inputs": [
        {
          "internalType": "uint256",
          "name": "_claimId",
          "type": "uint256"
        }
      ],
      "name": "markFunded",
      "outputs": [],
      "stateMutability": "nonpayable",
      "type": "function"
    },
    {
      "inputs": [],
      "name": "nextClaimId",
      "outputs": [
        {
          "internalType": "uint256",
          "name": "",
          "type": "uint256"
        }
      ],
      "stateMutability": "view",
      "type": "function"
    },
    {
      "inputs": [],
      "name": "owner",
      "outputs": [
        {
          "internalType": "address",
          "name": "",
          "type": "address"
        }
      ],
      "stateMutability": "view",
      "type": "function"
    },
    {
      "inputs": [
        {
          "internalType": "address",
          "name": "_reviewer",
          "type": "address"
        }
      ],
      "name": "removeReviewer",
      "outputs": [],
      "stateMutability": "nonpayable",
      "type": "function"
    },
    {
      "inputs": [],
      "name": "renounceOwnership",
      "outputs": [],
      "stateMutability": "nonpayable",
      "type": "function"
    },
    {
      "inputs": [],
      "name": "requiredPasses",
      "outputs": [
        {
          "internalType": "uint256",
          "name": "",
          "type": "uint256"
        }
      ],
      "stateMutability": "view",
      "type": "function"
    },
    {
      "inputs": [
        {
          "internalType": "address",
          "name": "from",
          "type": "address"
        },
        {
          "internalType": "address",
          "name": "to",
          "type": "address"
        },
        {
          "internalType": "uint256[]",
          "name": "ids",
          "type": "uint256[]"
        },
        {
          "internalType": "uint256[]",
          "name": "values",
          "type": "uint256[]"
        },
        {
          "internalType": "bytes",
          "name": "data",
          "type": "bytes"
        }
      ],
      "name": "safeBatchTransferFrom",
      "outputs": [],
      "stateMutability": "nonpayable",
      "type": "function"
    },
    {
      "inputs": [
        {
          "internalType": "address",
          "name": "from",
          "type": "address"
        },
        {
          "internalType": "address",
          "name": "to",
          "type": "address"
        },
        {
          "internalType": "uint256",
          "name": "id",
          "type": "uint256"
        },
        {
          "internalType": "uint256",
          "name": "value",
          "type": "uint256"
        },
        {
          "internalType": "bytes",
          "name": "data",
          "type": "bytes"
        }
      ],
      "name": "safeTransferFrom",
      "outputs": [],
      "stateMutability": "nonpayable",
      "type": "function"
    },
    {
      "inputs": [
        {
          "internalType": "address",
          "name": "operator",
          "type": "address"
        },
        {
          "internalType": "bool",
          "name": "approved",
          "type": "bool"
        }
      ],
      "name": "setApprovalForAll",
      "outputs": [],
      "stateMutability": "nonpayable",
      "type": "function"
    },
    {
      "inputs": [
        {
          "internalType": "uint256",
          "name": "_threshold",
          "type": "uint256"
        }
      ],
      "name": "setClaimThreshold",
      "outputs": [],
      "stateMutability": "nonpayable",
      "type": "function"
    },
    {
      "inputs": [
        {
          "internalType": "address",
          "name": "_dao",
          "type": "address"
        }
      ],
      "name": "setDAO",
      "outputs": [],
      "stateMutability": "nonpayable",
      "type": "function"
    },
    {
      "inputs": [
        {
          "internalType": "uint256",
          "name": "_m",
          "type": "uint256"
        }
      ],
      "name": "setRequiredPasses",
      "outputs": [],
      "stateMutability": "nonpayable",
      "type": "function"
    },
    {
      "inputs": [
        {
          "internalType": "bytes4",
          "name": "interfaceId",
          "type": "bytes4"
        }
      ],
      "name": "supportsInterface",
      "outputs": [
        {
          "internalType": "bool",
          "name": "",
          "type": "bool"
        }
      ],
      "stateMutability": "view",
      "type": "function"
    },
    {
      "inputs": [],
      "name": "token",
      "outputs": [
        {
          "internalType": "contract BReadyToken",
          "name": "",
          "type": "address"
        }
      ],
      "stateMutability": "view",
      "type": "function"
    },
    {
      "inputs": [
        {
          "internalType": "address",
          "name": "newOwner",
          "type": "address"
        }
      ],
      "name": "transferOwnership",
      "outputs": [],
      "stateMutability": "nonpayable",
      "type": "function"
    },
    {
      "inputs": [
        {
          "internalType": "uint256",
          "name": "_claimId",
          "type": "uint256"
        }
      ],
      "name": "uri",
      "outputs": [
        {
          "internalType": "string",
          "name": "",
          "type": "string"
        }
      ],
      "stateMutability": "view",
      "type": "function"
    }
  ],
  "transactionHash": "0x4bfe6453c2b4888cdf5bf72725d1e4b96d031e2dd3aa48408c86cd8b7f11b586",
  "args": [
    "0xe49a6eC5c2126F03AE8df3ABa0008b9aaAC9685b",
    2,
    "0xb1FcAF7b85d21029841C88fd41C34C5F111F353B",
    "1000000000000000000"
  ],
  "numDeployments": 1,
  "solcInputHash": "4a9b6192b0157f28866a1ff33b3b5663",
  "bytecode": "0x6080604052600160045534801561001557600080fd5b5060405161292b38038061292b83398101604081905261003491610134565b604080516020810190915260008152849061004e816100b6565b506001600160a01b03811661007d57604051631e4fbdf760e01b81526000600482015260240160405180910390fd5b610086816100c6565b50600592909255600b80546001600160a01b0319166001600160a01b0392909216919091179055600c55506102d6565b60026100c28282610218565b5050565b600380546001600160a01b038381166001600160a01b0319831681179093556040519116919082907f8be0079c531659141344cd1fd0a4f28419497f9722a3daafe3b4186f6b6457e090600090a35050565b80516001600160a01b038116811461012f57600080fd5b919050565b6000806000806080858703121561014a57600080fd5b61015385610118565b6020860151909450925061016960408601610118565b6060959095015193969295505050565b634e487b7160e01b600052604160045260246000fd5b600181811c908216806101a357607f821691505b6020821081036101c357634e487b7160e01b600052602260045260246000fd5b50919050565b601f82111561021357806000526020600020601f840160051c810160208510156101f05750805b601f840160051c820191505b8181101561021057600081556001016101fc565b50505b505050565b81516001600160401b0381111561023157610231610179565b6102458161023f845461018f565b846101c9565b6020601f82116001811461027957600083156102615750848201515b600019600385901b1c1916600184901b178455610210565b600084815260208120601f198516915b828110156102a95787850151825560209485019460019092019101610289565b50848210156102c75786840151600019600387901b60f8161c191681555b50505050600190811b01905550565b612646806102e56000396000f3fe608060405234801561001057600080fd5b50600436106101e45760003560e01c80638da5cb5b1161010f578063dc89b680116100a2578063f2fde38b11610071578063f2fde38b14610497578063f324c8eb146104aa578063fc0c546a146104bd578063fdc6258a146104d057600080fd5b8063dc89b6801461044b578063e73a914c1461045e578063e985e9c514610471578063f242432a1461048457600080fd5b8063a888c2cd116100de578063a888c2cd146103da578063c5666eb214610402578063c9442dac14610415578063d9ad695a1461042857600080fd5b80638da5cb5b146103a4578063a0021cf1146103b5578063a22cb465146103be578063a44285a5146103d157600080fd5b80634162169f11610187578063715018a611610156578063715018a61461036357806373a82b5f1461036b578063791808571461037e5780638155951f1461039157600080fd5b80634162169f146102ca5780634e1273f4146102f55780634f71a199146103155780635e4a73921461034357600080fd5b80630e89341c116101c35780630e89341c146102525780632eb2c2d61461027257806336dbd2f9146102875780633d97df16146102c157600080fd5b8062fdd58e146101e957806301ffc9a71461020f5780630d7ac4b614610232575b600080fd5b6101fc6101f7366004611ba3565b6104f3565b6040519081526020015b60405180910390f35b61022261021d366004611be3565b61051b565b6040519015158152602001610206565b6101fc610240366004611c07565b60009081526007602052604090205490565b610265610260366004611c07565b61056b565b6040516102069190611c66565b610285610280366004611dbe565b610610565b005b6102b4610295366004611c07565b600090815260066020526040902060040154600160801b900460ff1690565b6040516102069190611ea9565b6101fc60055481565b600a546102dd906001600160a01b031681565b6040516001600160a01b039091168152602001610206565b610308610303366004611eb7565b61067c565b6040516102069190611fba565b610222610323366004611ba3565b600960209081526000928352604080842090915290825290205460ff1681565b610356610351366004611fcd565b610748565b6040516102069190611fef565b610285610887565b61028561037936600461203f565b61089b565b6101fc61038c3660046120b9565b6108ef565b61028561039f36600461216e565b610c8f565b6003546001600160a01b03166102dd565b6101fc60045481565b6102856103cc3660046121c7565b610fb7565b6101fc600c5481565b6103ed6103e8366004611c07565b610fc6565b604051610206999897969594939291906121fa565b610285610410366004611c07565b61113f565b61028561042336600461203f565b61123d565b61043b610436366004611fcd565b61128e565b604051610206949392919061227f565b610285610459366004611c07565b61136e565b61028561046c36600461203f565b61137b565b61022261047f3660046122bc565b6113a5565b6102856104923660046122e6565b6113d3565b6102856104a536600461203f565b611432565b6102856104b8366004611c07565b611470565b600b546102dd906001600160a01b031681565b6102226104de36600461203f565b60086020526000908152604090205460ff1681565b6000818152602081815260408083206001600160a01b03861684529091529020545b92915050565b60006001600160e01b03198216636cdb3d1360e11b148061054c57506001600160e01b031982166303a24d0760e21b145b8061051557506301ffc9a760e01b6001600160e01b0319831614610515565b600081815260066020526040902060020180546060919061058b9061233e565b80601f01602080910402602001604051908101604052809291908181526020018280546105b79061233e565b80156106045780601f106105d957610100808354040283529160200191610604565b820191906000526020600020905b8154815290600101906020018083116105e757829003601f168201915b50505050509050919050565b336001600160a01b0386168114801590610631575061062f86826113a5565b155b156106675760405163711bec9160e11b81526001600160a01b038083166004830152871660248201526044015b60405180910390fd5b61067486868686866114b3565b505050505050565b606081518351146106ad5781518351604051635b05999160e01b81526004810192909252602482015260440161065e565b600083516001600160401b038111156106c8576106c8611c79565b6040519080825280602002602001820160405280156106f1578160200160208202803683370190505b50905060005b84518110156107405760208082028601015161071b906020808402870101516104f3565b82828151811061072d5761072d612378565b60209081029190910101526001016106f7565b509392505050565b61077e604051806080016040528060006001600160a01b0316815260200160001515815260200160608152602001600081525090565b600083815260076020526040902080548390811061079e5761079e612378565b600091825260209182902060408051608081018252600390930290910180546001600160a01b038116845260ff600160a01b90910416151593830193909352600183018054929392918401916107f39061233e565b80601f016020809104026020016040519081016040528092919081815260200182805461081f9061233e565b801561086c5780601f106108415761010080835404028352916020019161086c565b820191906000526020600020905b81548152906001019060200180831161084f57829003601f168201915b50505050508152602001600282015481525050905092915050565b61088f611513565b6108996000611540565b565b6108a3611513565b6001600160a01b038116600081815260086020526040808220805460ff19166001179055517fa78fc22d4599bb0c6086d2af06bc1158a45e81f81994d0734c428ab181c1463f9190a250565b600c54600b546040516370a0823160e01b8152336004820152600092916001600160a01b0316906370a0823190602401602060405180830381865afa15801561093c573d6000803e3d6000fd5b505050506040513d601f19601f82011682018060405250810190610960919061238e565b10156109b85760405162461bcd60e51b815260206004820152602160248201527f496e73756666696369656e74204252445920746f2063726561746520636c61696044820152606d60f81b606482015260840161065e565b6001600160a01b0388166109ff5760405162461bcd60e51b815260206004820152600e60248201526d16995c9bc81c9958da5c1a595b9d60921b604482015260640161065e565b826001600160401b0316826001600160401b03161015610a565760405162461bcd60e51b8152602060048201526012602482015271496e76616c69642074696d652072616e676560701b604482015260640161065e565b60048054906000610a66836123bd565b919050559050604051806101200160405280336001600160a01b03168152602001896001600160a01b0316815260200188888080601f016020809104026020016040519081016040528093929190818152602001838380828437600092019190915250505090825250604080516020601f89018190048102820181019092528781529181019190889088908190840183828082843760009201829052509385525050506001600160401b0380871660208401528516604083015260609091019081526000602080830182905260409283018290528482526006815290829020835181546001600160a01b03199081166001600160a01b0392831617835592850151600183018054909416911617909155908201516002820190610b899082612422565b5060608201516003820190610b9e9082612422565b50608082015160048201805460a08501516001600160401b03908116600160401b026fffffffffffffffffffffffffffffffff199092169316929092179190911780825560c0840151919060ff60801b1916600160801b836002811115610c0757610c07611e71565b021790555060e082015181600501556101008201518160060155905050610c403382600160405180602001604052806000815250611592565b336001600160a01b0316817f49df2fa74fcb74a57b6ade05a5b2b557c008ae98b667f70273671790d82ca1a28787604051610c7c9291906124e0565b60405180910390a3979650505050505050565b3360009081526008602052604090205460ff16610cee5760405162461bcd60e51b815260206004820152601a60248201527f4e6f7420612077686974656c6973746564207265766965776572000000000000604482015260640161065e565b600084815260066020526040902080546001600160a01b0316610d4a5760405162461bcd60e51b815260206004820152601460248201527310db185a5b48191bd95cc81b9bdd08195e1a5cdd60621b604482015260640161065e565b60006004820154600160801b900460ff166002811115610d6c57610d6c611e71565b14610dad5760405162461bcd60e51b8152602060048201526011602482015270436c61696d206e6f742070656e64696e6760781b604482015260640161065e565b33600090815260096020908152604080832088845290915290205460ff1615610e0c5760405162461bcd60e51b8152602060048201526011602482015270105b1c9958591e48195d985b1d585d1959607a1b604482015260640161065e565b3360008181526009602090815260408083208984528252808320805460ff1916600117905560078252918290208251608081018452938452871515848301528251601f8701839004830281018301845286815290939283019187908790819084018382808284376000920182905250938552505042602093840152508354600181810186559482529082902083516003909202018054928401511515600160a01b026001600160a81b03199093166001600160a01b039092169190911791909117815560408201519192909190820190610ee69082612422565b5060609190910151600290910155600681018054906000610f06836123bd565b91905055508315610f2957600581018054906000610f23836123bd565b91905055505b6040518415158152339086907f5c969d79bdf11bcd841cfa4f621d2e85e1470367c1bf5672fc339f64d995f8cf9060200160405180910390a3600554816005015410610fb05760048101805460ff60801b1916600160801b17905560405185907fd2d0ed0cccc8615643ade1eff3929a29ed8df75ebca85a3996e311c9b69e228990600090a25b5050505050565b610fc23383836115ef565b5050565b6006602052600090815260409020805460018201546002830180546001600160a01b03938416949290931692610ffb9061233e565b80601f01602080910402602001604051908101604052809291908181526020018280546110279061233e565b80156110745780601f1061104957610100808354040283529160200191611074565b820191906000526020600020905b81548152906001019060200180831161105757829003601f168201915b5050505050908060030180546110899061233e565b80601f01602080910402602001604051908101604052809291908181526020018280546110b59061233e565b80156111025780601f106110d757610100808354040283529160200191611102565b820191906000526020600020905b8154815290600101906020018083116110e557829003601f168201915b505050506004830154600584015460069094015492936001600160401b0380831694600160401b84049091169350600160801b90920460ff169189565b600a546001600160a01b0316331461118d5760405162461bcd60e51b815260206004820152601160248201527013db9b1e48111053c818d85b8818d85b1b607a1b604482015260640161065e565b600081815260066020526040902060016004820154600160801b900460ff1660028111156111bd576111bd611e71565b146111f95760405162461bcd60e51b815260206004820152600c60248201526b139bdd08185c1c1c9bdd995960a21b604482015260640161065e565b60048101805460ff60801b1916600160811b17905560405182907ff04cca0ed65ffc015513aa6f8be8d690dababdf2679ca2ebcda764e2ed3d425290600090a25050565b611245611513565b6001600160a01b038116600081815260086020526040808220805460ff19169055517f49145f5509d304a1345a43a563c576514a1b93d345ffca3905a2bed1d867442c9190a250565b600760205281600052604060002081815481106112aa57600080fd5b6000918252602090912060039091020180546001820180546001600160a01b0383169550600160a01b90920460ff169350906112e59061233e565b80601f01602080910402602001604051908101604052809291908181526020018280546113119061233e565b801561135e5780601f106113335761010080835404028352916020019161135e565b820191906000526020600020905b81548152906001019060200180831161134157829003601f168201915b5050505050908060020154905084565b611376611513565b600555565b611383611513565b600a80546001600160a01b0319166001600160a01b0392909216919091179055565b6001600160a01b03918216600090815260016020908152604080832093909416825291909152205460ff1690565b336001600160a01b03861681148015906113f457506113f286826113a5565b155b156114255760405163711bec9160e11b81526001600160a01b0380831660048301528716602482015260440161065e565b6106748686868686611685565b61143a611513565b6001600160a01b03811661146457604051631e4fbdf760e01b81526000600482015260240161065e565b61146d81611540565b50565b611478611513565b600c8190556040518181527fe604909b918af52702fa14cd9b5a8870e5bd66da3163365671e583f705fd54639060200160405180910390a150565b6001600160a01b0384166114dd57604051632bfa23e760e11b81526000600482015260240161065e565b6001600160a01b03851661150657604051626a0d4560e21b81526000600482015260240161065e565b610fb08585858585611713565b6003546001600160a01b031633146108995760405163118cdaa760e01b815233600482015260240161065e565b600380546001600160a01b038381166001600160a01b0319831681179093556040519116919082907f8be0079c531659141344cd1fd0a4f28419497f9722a3daafe3b4186f6b6457e090600090a35050565b6001600160a01b0384166115bc57604051632bfa23e760e11b81526000600482015260240161065e565b60408051600180825260208201869052818301908152606082018590526080820190925290610674600087848487611713565b6001600160a01b0382166116185760405162ced3e160e81b81526000600482015260240161065e565b6001600160a01b03838116600081815260016020908152604080832094871680845294825291829020805460ff191686151590811790915591519182527f17307eab39ab6107e8899845ad3d59bd9653f200f220920489ca2b5937696c31910160405180910390a3505050565b6001600160a01b0384166116af57604051632bfa23e760e11b81526000600482015260240161065e565b6001600160a01b0385166116d857604051626a0d4560e21b81526000600482015260240161065e565b6040805160018082526020820186905281830190815260608201859052608082019092529061170a8787848487611713565b50505050505050565b61171f85858585611766565b6001600160a01b03841615610fb05782513390600103611758576020848101519084015161175183898985858961197a565b5050610674565b610674818787878787611a9e565b80518251146117955781518151604051635b05999160e01b81526004810192909252602482015260440161065e565b3360005b835181101561189b576020818102858101820151908501909101516001600160a01b0388161561184c576000828152602081815260408083206001600160a01b038c16845290915290205481811015611825576040516303dee4c560e01b81526001600160a01b038a16600482015260248101829052604481018390526064810184905260840161065e565b6000838152602081815260408083206001600160a01b038d16845290915290209082900390555b6001600160a01b03871615611891576000828152602081815260408083206001600160a01b038b1684529091528120805483929061188b90849061250f565b90915550505b5050600101611799565b50825160010361191c5760208301516000906020840151909150856001600160a01b0316876001600160a01b0316846001600160a01b03167fc3d58168c5ae7397731d063d5bbf3d657854427343f4c083240f7aacaa2d0f62858560405161190d929190918252602082015260400190565b60405180910390a45050610fb0565b836001600160a01b0316856001600160a01b0316826001600160a01b03167f4a39dc06d4c0dbc64b70af90fd698a233a518aa5d07e595d983b8c0526c8f7fb868660405161196b929190612522565b60405180910390a45050505050565b6001600160a01b0384163b156106745760405163f23a6e6160e01b81526001600160a01b0385169063f23a6e61906119be9089908990889088908890600401612550565b6020604051808303816000875af19250505080156119f9575060408051601f3d908101601f191682019092526119f691810190612595565b60015b611a62573d808015611a27576040519150601f19603f3d011682016040523d82523d6000602084013e611a2c565b606091505b508051600003611a5a57604051632bfa23e760e11b81526001600160a01b038616600482015260240161065e565b805181602001fd5b6001600160e01b0319811663f23a6e6160e01b1461170a57604051632bfa23e760e11b81526001600160a01b038616600482015260240161065e565b6001600160a01b0384163b156106745760405163bc197c8160e01b81526001600160a01b0385169063bc197c8190611ae290899089908890889088906004016125b2565b6020604051808303816000875af1925050508015611b1d575060408051601f3d908101601f19168201909252611b1a91810190612595565b60015b611b4b573d808015611a27576040519150601f19603f3d011682016040523d82523d6000602084013e611a2c565b6001600160e01b0319811663bc197c8160e01b1461170a57604051632bfa23e760e11b81526001600160a01b038616600482015260240161065e565b80356001600160a01b0381168114611b9e57600080fd5b919050565b60008060408385031215611bb657600080fd5b611bbf83611b87565b946020939093013593505050565b6001600160e01b03198116811461146d57600080fd5b600060208284031215611bf557600080fd5b8135611c0081611bcd565b9392505050565b600060208284031215611c1957600080fd5b5035919050565b6000815180845260005b81811015611c4657602081850181015186830182015201611c2a565b506000602082860101526020601f19601f83011685010191505092915050565b602081526000611c006020830184611c20565b634e487b7160e01b600052604160045260246000fd5b604051601f8201601f191681016001600160401b0381118282101715611cb757611cb7611c79565b604052919050565b60006001600160401b03821115611cd857611cd8611c79565b5060051b60200190565b600082601f830112611cf357600080fd5b8135611d06611d0182611cbf565b611c8f565b8082825260208201915060208360051b860101925085831115611d2857600080fd5b602085015b83811015611d45578035835260209283019201611d2d565b5095945050505050565b600082601f830112611d6057600080fd5b81356001600160401b03811115611d7957611d79611c79565b611d8c601f8201601f1916602001611c8f565b818152846020838601011115611da157600080fd5b816020850160208301376000918101602001919091529392505050565b600080600080600060a08688031215611dd657600080fd5b611ddf86611b87565b9450611ded60208701611b87565b935060408601356001600160401b03811115611e0857600080fd5b611e1488828901611ce2565b93505060608601356001600160401b03811115611e3057600080fd5b611e3c88828901611ce2565b92505060808601356001600160401b03811115611e5857600080fd5b611e6488828901611d4f565b9150509295509295909350565b634e487b7160e01b600052602160045260246000fd5b60038110611ea557634e487b7160e01b600052602160045260246000fd5b9052565b602081016105158284611e87565b60008060408385031215611eca57600080fd5b82356001600160401b03811115611ee057600080fd5b8301601f81018513611ef157600080fd5b8035611eff611d0182611cbf565b8082825260208201915060208360051b850101925087831115611f2157600080fd5b6020840193505b82841015611f4a57611f3984611b87565b825260209384019390910190611f28565b945050505060208301356001600160401b03811115611f6857600080fd5b611f7485828601611ce2565b9150509250929050565b600081518084526020840193506020830160005b82811015611fb0578151865260209586019590910190600101611f92565b5093949350505050565b602081526000611c006020830184611f7e565b60008060408385031215611fe057600080fd5b50508035926020909101359150565b6020815260018060a01b038251166020820152602082015115156040820152600060408301516080606084015261202960a0840182611c20565b9050606084015160808401528091505092915050565b60006020828403121561205157600080fd5b611c0082611b87565b60008083601f84011261206c57600080fd5b5081356001600160401b0381111561208357600080fd5b60208301915083602082850101111561209b57600080fd5b9250929050565b80356001600160401b0381168114611b9e57600080fd5b600080600080600080600060a0888a0312156120d457600080fd5b6120dd88611b87565b965060208801356001600160401b038111156120f857600080fd5b6121048a828b0161205a565b90975095505060408801356001600160401b0381111561212357600080fd5b61212f8a828b0161205a565b90955093506121429050606089016120a2565b9150612150608089016120a2565b905092959891949750929550565b80358015158114611b9e57600080fd5b6000806000806060858703121561218457600080fd5b843593506121946020860161215e565b925060408501356001600160401b038111156121af57600080fd5b6121bb8782880161205a565b95989497509550505050565b600080604083850312156121da57600080fd5b6121e383611b87565b91506121f16020840161215e565b90509250929050565b6001600160a01b038a8116825289166020820152610120604082018190526000906122279083018a611c20565b8281036060840152612239818a611c20565b9150506001600160401b03871660808301526001600160401b03861660a083015261226760c0830186611e87565b60e08201939093526101000152979650505050505050565b6001600160a01b038516815283151560208201526080604082018190526000906122ab90830185611c20565b905082606083015295945050505050565b600080604083850312156122cf57600080fd5b6122d883611b87565b91506121f160208401611b87565b600080600080600060a086880312156122fe57600080fd5b61230786611b87565b945061231560208701611b87565b9350604086013592506060860135915060808601356001600160401b03811115611e5857600080fd5b600181811c9082168061235257607f821691505b60208210810361237257634e487b7160e01b600052602260045260246000fd5b50919050565b634e487b7160e01b600052603260045260246000fd5b6000602082840312156123a057600080fd5b5051919050565b634e487b7160e01b600052601160045260246000fd5b6000600182016123cf576123cf6123a7565b5060010190565b601f82111561241d57806000526020600020601f840160051c810160208510156123fd5750805b601f840160051c820191505b81811015610fb05760008155600101612409565b505050565b81516001600160401b0381111561243b5761243b611c79565b61244f81612449845461233e565b846123d6565b6020601f821160018114612483576000831561246b5750848201515b600019600385901b1c1916600184901b178455610fb0565b600084815260208120601f198516915b828110156124b35787850151825560209485019460019092019101612493565b50848210156124d15786840151600019600387901b60f8161c191681555b50505050600190811b01905550565b60208152816020820152818360408301376000818301604090810191909152601f909201601f19160101919050565b80820180821115610515576105156123a7565b6040815260006125356040830185611f7e565b82810360208401526125478185611f7e565b95945050505050565b6001600160a01b03868116825285166020820152604081018490526060810183905260a06080820181905260009061258a90830184611c20565b979650505050505050565b6000602082840312156125a757600080fd5b8151611c0081611bcd565b6001600160a01b0386811682528516602082015260a0604082018190526000906125de90830186611f7e565b82810360608401526125f08186611f7e565b905082810360808401526126048185611c20565b9897505050505050505056fea2646970667358221220ec3a6b945fa81483e8fdd725667d5674e2e579c20396e856212e862d9d5f430f64736f6c634300081e0033",
  "devdoc": {
    "errors": {
      "ERC1155InsufficientBalance(address,uint256,uint256,uint256)": [
        {
          "details": "Indicates an error related to the current `balance` of a `sender`. Used in transfers.",
          "params": {
            "balance": "Current balance for the interacting account.",
            "needed": "Minimum amount required to perform a transfer.",
            "sender": "Address whose tokens are being transferred.",
            "tokenId": "Identifier number of a token."
          }
        }
      ],
      "ERC1155InvalidApprover(address)": [
        {
          "details": "Indicates a failure with the `approver` of a token to be approved. Used in approvals.",
          "params": {
            "approver": "Address initiating an approval operation."
          }
        }
      ],
      "ERC1155InvalidArrayLength(uint256,uint256)": [
        {
          "details": "Indicates an array length mismatch between ids and values in a safeBatchTransferFrom operation. Used in batch transfers.",
          "params": {
            "idsLength": "Length of the array of token identifiers",
            "valuesLength": "Length of the array of token amounts"
          }
        }
      ],
      "ERC1155InvalidOperator(address)": [
        {
          "details": "Indicates a failure with the `operator` to be approved. Used in approvals.",
          "params": {
            "operator": "Address that may be allowed to operate on tokens without being their owner."
          }
        }
      ],
      "ERC1155InvalidReceiver(address)": [
        {
          "details": "Indicates a failure with the token `receiver`. Used in transfers.",
          "params": {
            "receiver": "Address to which tokens are being transferred."
          }
        }
      ],
      "ERC1155InvalidSender(address)": [
        {
          "details": "Indicates a failure with the token `sender`. Used in transfers.",
          "params": {
            "sender": "Address whose tokens are being transferred."
          }
        }
      ],
      "ERC1155MissingApprovalForAll(address,address)": [
        {
          "details": "Indicates a failure with the `operator`’s approval. Used in transfers.",
          "params": {
            "operator": "Address that may be allowed to operate on tokens without being their owner.",
            "owner": "Address of the current owner of a token."
          }
        }
      ],
      "OwnableInvalidOwner(address)": [
        {
          "details": "The owner is not a valid owner account. (eg. `address(0)`)"
        }
      ],
      "OwnableUnauthorizedAccount(address)": [
        {
          "details": "The caller account is not authorized to perform an operation."
        }
      ]
    },
    "events": {
      "ApprovalForAll(address,address,bool)": {
        "details": "Emitted when `account` grants or revokes permission to `operator` to transfer their tokens, according to `approved`."
      },
      "TransferBatch(address,address,address,uint256[],uint256[])": {
        "details": "Equivalent to multiple {TransferSingle} events, where `operator`, `from` and `to` are the same for all transfers."
      },
      "TransferSingle(address,address,address,uint256,uint256)": {
        "details": "Emitted when `value` amount of tokens of type `id` are transferred from `from` to `to` by `operator`."
      },
      "URI(string,uint256)": {
        "details": "Emitted when the URI for token type `id` changes to `value`, if it is a non-programmatic URI. If an {URI} event was emitted for `id`, the standard https://eips.ethereum.org/EIPS/eip-1155#metadata-extensions[guarantees] that `value` will equal the value returned by {IERC1155MetadataURI-uri}."
      }
    },
    "kind": "dev",
    "methods": {
      "balanceOf(address,uint256)": {
        "details": "See {IERC1155-balanceOf}."
      },
      "balanceOfBatch(address[],uint256[])": {
        "details": "See {IERC1155-balanceOfBatch}. Requirements: - `accounts` and `ids` must have the same length."
      },
      "createClaim(address,string,string,uint64,uint64)": {
        "params": {
          "_impactEnd": "End of the impact period (unix timestamp).",
          "_impactScope": "Human-readable impact description.",
          "_impactStart": "Start of the impact period (unix timestamp).",
          "_recipient": "Address to receive funding if approved.",
          "_tokenURI": "URI pointing to metadata + evidence (IPFS)."
        },
        "returns": {
          "claimId": "    The ID of the newly minted claim."
        }
      },
      "evaluate(uint256,bool,string)": {
        "params": {
          "_claimId": "The claim to evaluate.",
          "_evidenceURI": "Optional link to reviewer's evidence.",
          "_pass": "true = Pass, false = Fail."
        }
      },
      "isApprovedForAll(address,address)": {
        "details": "See {IERC1155-isApprovedForAll}."
      },
      "markFunded(uint256)": {
        "params": {
          "_claimId": "The claim that has been funded."
        }
      },
      "owner()": {
        "details": "Returns the address of the current owner."
      },
      "renounceOwnership()": {
        "details": "Leaves the contract without owner. It will not be possible to call `onlyOwner` functions. Can only be called by the current owner. NOTE: Renouncing ownership will leave the contract without an owner, thereby disabling any functionality that is only available to the owner."
      },
      "safeBatchTransferFrom(address,address,uint256[],uint256[],bytes)": {
        "details": "See {IERC1155-safeBatchTransferFrom}."
      },
      "safeTransferFrom(address,address,uint256,uint256,bytes)": {
        "details": "See {IERC1155-safeTransferFrom}."
      },
      "setApprovalForAll(address,bool)": {
        "details": "See {IERC1155-setApprovalForAll}."
      },
      "supportsInterface(bytes4)": {
        "details": "See {IERC165-supportsInterface}."
      },
      "transferOwnership(address)": {
        "details": "Transfers ownership of the contract to a new account (`newOwner`). Can only be called by the current owner."
      }
    },
    "title": "ImpactClaim",
    "version": 1
  },
  "userdoc": {
    "kind": "user",
    "methods": {
      "createClaim(address,string,string,uint64,uint64)": {
        "notice": "Mint a new impact claim.         Requires caller to hold >= claimThreshold BRDY (anti-spam)."
      },
      "evaluate(uint256,bool,string)": {
        "notice": "Submit an evaluation for a pending claim."
      },
      "markFunded(uint256)": {
        "notice": "Mark a claim as Funded. Only callable by the DAO contract."
      }
    },
    "notice": "ERC-1155 impact certificates (Hypercert-like) with built-in M-of-N evaluation.  Lifecycle:  Pending → ApprovedForFunding → Funded  - Claim creation requires a minimum BRDY balance (anti-spam).  - Whitelisted reviewers submit on-chain evaluations (Pass/Fail).  - When M out of N reviewers pass a claim, status becomes ApprovedForFunding.  - The DAO calls markFunded() after successful payout.  Ownership should be transferred to BReadyDAO after deployment so that  reviewer management and threshold changes are governed, not admin-controlled.",
    "version": 1
  },
  "storageLayout": {
    "storage": [
      {
        "astId": 1007,
        "contract": "contracts/ImpactClaim.sol:ImpactClaim",
        "label": "_balances",
        "offset": 0,
        "slot": "0",
        "type": "t_mapping(t_uint256,t_mapping(t_address,t_uint256))"
      },
      {
        "astId": 1013,
        "contract": "contracts/ImpactClaim.sol:ImpactClaim",
        "label": "_operatorApprovals",
        "offset": 0,
        "slot": "1",
        "type": "t_mapping(t_address,t_mapping(t_address,t_bool))"
      },
      {
        "astId": 1015,
        "contract": "contracts/ImpactClaim.sol:ImpactClaim",
        "label": "_uri",
        "offset": 0,
        "slot": "2",
        "type": "t_string_storage"
      },
      {
        "astId": 8,
        "contract": "contracts/ImpactClaim.sol:ImpactClaim",
        "label": "_owner",
        "offset": 0,
        "slot": "3",
        "type": "t_address"
      },
      {
        "astId": 10313,
        "contract": "contracts/ImpactClaim.sol:ImpactClaim",
        "label": "nextClaimId",
        "offset": 0,
        "slot": "4",
        "type": "t_uint256"
      },
      {
        "astId": 10315,
        "contract": "contracts/ImpactClaim.sol:ImpactClaim",
        "label": "requiredPasses",
        "offset": 0,
        "slot": "5",
        "type": "t_uint256"
      },
      {
        "astId": 10320,
        "contract": "contracts/ImpactClaim.sol:ImpactClaim",
        "label": "claims",
        "offset": 0,
        "slot": "6",
        "type": "t_mapping(t_uint256,t_struct(Claim)10301_storage)"
      },
      {
        "astId": 10326,
        "contract": "contracts/ImpactClaim.sol:ImpactClaim",
        "label": "evaluations",
        "offset": 0,
        "slot": "7",
        "type": "t_mapping(t_uint256,t_array(t_struct(Evaluation)10310_storage)dyn_storage)"
      },
      {
        "astId": 10330,
        "contract": "contracts/ImpactClaim.sol:ImpactClaim",
        "label": "isReviewer",
        "offset": 0,
        "slot": "8",
        "type": "t_mapping(t_address,t_bool)"
      },
      {
        "astId": 10336,
        "contract": "contracts/ImpactClaim.sol:ImpactClaim",
        "label": "hasEvaluated",
        "offset": 0,
        "slot": "9",
        "type": "t_mapping(t_address,t_mapping(t_uint256,t_bool))"
      },
      {
        "astId": 10338,
        "contract": "contracts/ImpactClaim.sol:ImpactClaim",
        "label": "dao",
        "offset": 0,
        "slot": "10",
        "type": "t_address"
      },
      {
        "astId": 10341,
        "contract": "contracts/ImpactClaim.sol:ImpactClaim",
        "label": "token",
        "offset": 0,
        "slot": "11",
        "type": "t_contract(BReadyToken)10267"
      },
      {
        "astId": 10343,
        "contract": "contracts/ImpactClaim.sol:ImpactClaim",
        "label": "claimThreshold",
        "offset": 0,
        "slot": "12",
        "type": "t_uint256"
      }
    ],
    "types": {
      "t_address": {
        "encoding": "inplace",
        "label": "address",
        "numberOfBytes": "20"
      },
      "t_array(t_struct(Evaluation)10310_storage)dyn_storage": {
        "base": "t_struct(Evaluation)10310_storage",
        "encoding": "dynamic_array",
        "label": "struct ImpactClaim.Evaluation[]",
        "numberOfBytes": "32"
      },
      "t_bool": {
        "encoding": "inplace",
        "label": "bool",
        "numberOfBytes": "1"
      },
      "t_contract(BReadyToken)10267": {
        "encoding": "inplace",
        "label": "contract BReadyToken",
        "numberOfBytes": "20"
      },
      "t_enum(ClaimStatus)10281": {
        "encoding": "inplace",
        "label": "enum ImpactClaim.ClaimStatus",
        "numberOfBytes": "1"
      },
      "t_mapping(t_address,t_bool)": {
        "encoding": "mapping",
        "key": "t_address",
        "label": "mapping(address => bool)",
        "numberOfBytes": "32",
        "value": "t_bool"
      },
      "t_mapping(t_address,t_mapping(t_address,t_bool))": {
        "encoding": "mapping",
        "key": "t_address",
        "label": "mapping(address => mapping(address => bool))",
        "numberOfBytes": "32",
        "value": "t_mapping(t_address,t_bool)"
      },
      "t_mapping(t_address,t_mapping(t_uint256,t_bool))": {
        "encoding": "mapping",
        "key": "t_address",
        "label": "mapping(address => mapping(uint256 => bool))",
        "numberOfBytes": "32",
        "value": "t_mapping(t_uint256,t_bool)"
      },
      "t_mapping(t_address,t_uint256)": {
        "encoding": "mapping",
        "key": "t_address",
        "label": "mapping(address => uint256)",
        "numberOfBytes": "32",
        "value": "t_uint256"
      },
      "t_mapping(t_uint256,t_array(t_struct(Evaluation)10310_storage)dyn_storage)": {
        "encoding": "mapping",
        "key": "t_uint256",
        "label": "mapping(uint256 => struct ImpactClaim.Evaluation[])",
        "numberOfBytes": "32",
        "value": "t_array(t_struct(Evaluation)10310_storage)dyn_storage"
      },
      "t_mapping(t_uint256,t_bool)": {
        "encoding": "mapping",
        "key": "t_uint256",
        "label": "mapping(uint256 => bool)",
        "numberOfBytes": "32",
        "value": "t_bool"
      },
      "t_mapping(t_uint256,t_mapping(t_address,t_uint256))": {
        "encoding": "mapping",
        "key": "t_uint256",
        "label": "mapping(uint256 => mapping(address => uint256))",
        "numberOfBytes": "32",
        "value": "t_mapping(t_address,t_uint256)"
      },
      "t_mapping(t_uint256,t_struct(Claim)10301_storage)": {
        "encoding": "mapping",
        "key": "t_uint256",
        "label": "mapping(uint256 => struct ImpactClaim.Claim)",
        "numberOfBytes": "32",
        "value": "t_struct(Claim)10301_storage"
      },
      "t_string_storage": {
        "encoding": "bytes",
        "label": "string",
        "numberOfBytes": "32"
      },
      "t_struct(Claim)10301_storage": {
        "encoding": "inplace",
        "label": "struct ImpactClaim.Claim",
        "members": [
          {
            "astId": 10283,
            "contract": "contracts/ImpactClaim.sol:ImpactClaim",
            "label": "creator",
            "offset": 0,
            "slot": "0",
            "type": "t_address"
          },
          {
            "astId": 10285,
            "contract": "contracts/ImpactClaim.sol:ImpactClaim",
            "label": "recipient",
            "offset": 0,
            "slot": "1",
            "type": "t_address"
          },
          {
            "astId": 10287,
            "contract": "contracts/ImpactClaim.sol:ImpactClaim",
            "label": "tokenURI",
            "offset": 0,
            "slot": "2",
            "type": "t_string_storage"
          },
          {
            "astId": 10289,
            "contract": "contracts/ImpactClaim.sol:ImpactClaim",
            "label": "impactScope",
            "offset": 0,
            "slot": "3",
            "type": "t_string_storage"
          },
          {
            "astId": 10291,
            "contract": "contracts/ImpactClaim.sol:ImpactClaim",
            "label": "impactStart",
            "offset": 0,
            "slot": "4",
            "type": "t_uint64"
          },
          {
            "astId": 10293,
            "contract": "contracts/ImpactClaim.sol:ImpactClaim",
            "label": "impactEnd",
            "offset": 8,
            "slot": "4",
            "type": "t_uint64"
          },
          {
            "astId": 10296,
            "contract": "contracts/ImpactClaim.sol:ImpactClaim",
            "label": "status",
            "offset": 16,
            "slot": "4",
            "type": "t_enum(ClaimStatus)10281"
          },
          {
            "astId": 10298,
            "contract": "contracts/ImpactClaim.sol:ImpactClaim",
            "label": "passCount",
            "offset": 0,
            "slot": "5",
            "type": "t_uint256"
          },
          {
            "astId": 10300,
            "contract": "contracts/ImpactClaim.sol:ImpactClaim",
            "label": "totalEvals",
            "offset": 0,
            "slot": "6",
            "type": "t_uint256"
          }
        ],
        "numberOfBytes": "224"
      },
      "t_struct(Evaluation)10310_storage": {
        "encoding": "inplace",
        "label": "struct ImpactClaim.Evaluation",
        "members": [
          {
            "astId": 10303,
            "contract": "contracts/ImpactClaim.sol:ImpactClaim",
            "label": "reviewer",
            "offset": 0,
            "slot": "0",
            "type": "t_address"
          },
          {
            "astId": 10305,
            "contract": "contracts/ImpactClaim.sol:ImpactClaim",
            "label": "pass",
            "offset": 20,
            "slot": "0",
            "type": "t_bool"
          },
          {
            "astId": 10307,
            "contract": "contracts/ImpactClaim.sol:ImpactClaim",
            "label": "evidenceURI",
            "offset": 0,
            "slot": "1",
            "type": "t_string_storage"
          },
          {
            "astId": 10309,
            "contract": "contracts/ImpactClaim.sol:ImpactClaim",
            "label": "timestamp",
            "offset": 0,
            "slot": "2",
            "type": "t_uint256"
          }
        ],
        "numberOfBytes": "96"
      },
      "t_uint256": {
        "encoding": "inplace",
        "label": "uint256",
        "numberOfBytes": "32"
      },
      "t_uint64": {
        "encoding": "inplace",
        "label": "uint64",
        "numberOfBytes": "8"
      }
    }
  }
}